{
  "contractName": "ControlDevices",
  "abi": [
    {
      "inputs": [],
      "stateMutability": "nonpayable",
      "type": "constructor"
    },
    {
      "anonymous": false,
      "inputs": [
        {
          "indexed": false,
          "internalType": "string",
          "name": "name",
          "type": "string"
        }
      ],
      "name": "device_event",
      "type": "event"
    },
    {
      "inputs": [
        {
          "internalType": "uint256",
          "name": "",
          "type": "uint256"
        }
      ],
      "name": "Devices",
      "outputs": [
        {
          "internalType": "string",
          "name": "name",
          "type": "string"
        },
        {
          "internalType": "bool",
          "name": "power",
          "type": "bool"
        },
        {
          "internalType": "bool",
          "name": "status",
          "type": "bool"
        },
        {
          "internalType": "uint256",
          "name": "startTime",
          "type": "uint256"
        },
        {
          "internalType": "uint256",
          "name": "totalTime",
          "type": "uint256"
        }
      ],
      "stateMutability": "view",
      "type": "function",
      "constant": true
    },
    {
      "inputs": [
        {
          "internalType": "uint256",
          "name": "",
          "type": "uint256"
        }
      ],
      "name": "Room",
      "outputs": [
        {
          "internalType": "bool",
          "name": "",
          "type": "bool"
        }
      ],
      "stateMutability": "view",
      "type": "function",
      "constant": true
    },
    {
      "inputs": [],
      "name": "owner",
      "outputs": [
        {
          "internalType": "address",
          "name": "",
          "type": "address"
        }
      ],
      "stateMutability": "view",
      "type": "function",
      "constant": true
    },
    {
      "inputs": [
        {
          "internalType": "uint256",
          "name": "pin",
          "type": "uint256"
        }
      ],
      "name": "getTotalTime",
      "outputs": [
        {
          "internalType": "uint256",
          "name": "",
          "type": "uint256"
        }
      ],
      "stateMutability": "view",
      "type": "function",
      "constant": true
    },
    {
      "inputs": [
        {
          "internalType": "uint256",
          "name": "pin",
          "type": "uint256"
        }
      ],
      "name": "add_device",
      "outputs": [],
      "stateMutability": "nonpayable",
      "type": "function"
    },
    {
      "inputs": [
        {
          "internalType": "uint256",
          "name": "pin",
          "type": "uint256"
        }
      ],
      "name": "remove_device",
      "outputs": [],
      "stateMutability": "nonpayable",
      "type": "function"
    },
    {
      "inputs": [
        {
          "internalType": "uint256",
          "name": "pin",
          "type": "uint256"
        }
      ],
      "name": "device_status",
      "outputs": [
        {
          "internalType": "bool",
          "name": "",
          "type": "bool"
        }
      ],
      "stateMutability": "view",
      "type": "function",
      "constant": true
    },
    {
      "inputs": [
        {
          "internalType": "uint256",
          "name": "pin",
          "type": "uint256"
        }
      ],
      "name": "change_device_status",
      "outputs": [],
      "stateMutability": "nonpayable",
      "type": "function"
    },
    {
      "inputs": [
        {
          "internalType": "uint256",
          "name": "n",
          "type": "uint256"
        }
      ],
      "name": "room_status",
      "outputs": [
        {
          "internalType": "bool",
          "name": "",
          "type": "bool"
        }
      ],
      "stateMutability": "view",
      "type": "function",
      "constant": true
    },
    {
      "inputs": [
        {
          "internalType": "uint256",
          "name": "n",
          "type": "uint256"
        }
      ],
      "name": "change_room_status",
      "outputs": [],
      "stateMutability": "nonpayable",
      "type": "function"
    },
    {
      "inputs": [
        {
          "internalType": "uint256",
          "name": "_id",
          "type": "uint256"
        }
      ],
      "name": "device_mapping_test",
      "outputs": [],
      "stateMutability": "nonpayable",
      "type": "function"
    }
  ],
  "bytecode": "0x60806040523480156200001157600080fd5b50336000806101000a81548173ffffffffffffffffffffffffffffffffffffffff021916908373ffffffffffffffffffffffffffffffffffffffff1602179055506000600260006001815260200190815260200160002060006101000a81548160ff0219169083151502179055506040518060a001604052806040518060400160405280600381526020017f46616e0000000000000000000000000000000000000000000000000000000000815250815260200160001515815260200160001515815260200160008152602001600081525060016000600281526020019081526020016000206000820151816000019080519060200190620001159291906200087c565b5060208201518160010160006101000a81548160ff02191690831515021790555060408201518160010160016101000a81548160ff02191690831515021790555060608201518160020155608082015181600301559050506040518060a001604052806040518060400160405280600581526020017f4c69676874000000000000000000000000000000000000000000000000000000815250815260200160001515815260200160001515815260200160008152602001600081525060016000600381526020019081526020016000206000820151816000019080519060200190620002039291906200087c565b5060208201518160010160006101000a81548160ff02191690831515021790555060408201518160010160016101000a81548160ff02191690831515021790555060608201518160020155608082015181600301559050506000600260006002815260200190815260200160002060006101000a81548160ff0219169083151502179055506040518060a001604052806040518060400160405280600381526020017f46616e00000000000000000000000000000000000000000000000000000000008152508152602001600015158152602001600015158152602001600081526020016000815250600160006004815260200190815260200160002060008201518160000190805190602001906200031e9291906200087c565b5060208201518160010160006101000a81548160ff02191690831515021790555060408201518160010160016101000a81548160ff02191690831515021790555060608201518160020155608082015181600301559050506040518060a001604052806040518060400160405280600581526020017f4c696768740000000000000000000000000000000000000000000000000000008152508152602001600015158152602001600015158152602001600081526020016000815250600160006005815260200190815260200160002060008201518160000190805190602001906200040c9291906200087c565b5060208201518160010160006101000a81548160ff02191690831515021790555060408201518160010160016101000a81548160ff02191690831515021790555060608201518160020155608082015181600301559050506000600260006003815260200190815260200160002060006101000a81548160ff0219169083151502179055506040518060a001604052806040518060400160405280600381526020017f46616e0000000000000000000000000000000000000000000000000000000000815250815260200160001515815260200160001515815260200160008152602001600081525060016000600681526020019081526020016000206000820151816000019080519060200190620005279291906200087c565b5060208201518160010160006101000a81548160ff02191690831515021790555060408201518160010160016101000a81548160ff02191690831515021790555060608201518160020155608082015181600301559050506040518060a001604052806040518060400160405280600581526020017f4c69676874000000000000000000000000000000000000000000000000000000815250815260200160001515815260200160001515815260200160008152602001600081525060016000600781526020019081526020016000206000820151816000019080519060200190620006159291906200087c565b5060208201518160010160006101000a81548160ff02191690831515021790555060408201518160010160016101000a81548160ff02191690831515021790555060608201518160020155608082015181600301559050506000600260006004815260200190815260200160002060006101000a81548160ff0219169083151502179055506040518060a001604052806040518060400160405280600381526020017f46616e0000000000000000000000000000000000000000000000000000000000815250815260200160001515815260200160001515815260200160008152602001600081525060016000600881526020019081526020016000206000820151816000019080519060200190620007309291906200087c565b5060208201518160010160006101000a81548160ff02191690831515021790555060408201518160010160016101000a81548160ff02191690831515021790555060608201518160020155608082015181600301559050506040518060a001604052806040518060400160405280600581526020017f4c696768740000000000000000000000000000000000000000000000000000008152508152602001600015158152602001600015158152602001600081526020016000815250600160006009815260200190815260200160002060008201518160000190805190602001906200081e9291906200087c565b5060208201518160010160006101000a81548160ff02191690831515021790555060408201518160010160016101000a81548160ff021916908315150217905550606082015181600201556080820151816003015590505062000991565b8280546200088a906200095b565b90600052602060002090601f016020900481019282620008ae5760008555620008fa565b82601f10620008c957805160ff1916838001178555620008fa565b82800160010185558215620008fa579182015b82811115620008f9578251825591602001919060010190620008dc565b5b5090506200090991906200090d565b5090565b5b80821115620009285760008160009055506001016200090e565b5090565b7f4e487b7100000000000000000000000000000000000000000000000000000000600052602260045260246000fd5b600060028204905060018216806200097457607f821691505b602082108114156200098b576200098a6200092c565b5b50919050565b610bc280620009a16000396000f3fe608060405234801561001057600080fd5b50600436106100a95760003560e01c80631b93021a116100715780631b93021a14610176578063570abe2a146101925780635f530671146101c25780638da5cb5b146101de578063be5fb212146101fc578063d709883e14610218576100a9565b80630548fafc146100ae57806308b91c6b146100de578063114905021461010e578063124f2a551461013e57806313a3b24f1461015a575b600080fd5b6100c860048036038101906100c391906107df565b61024c565b6040516100d59190610827565b60405180910390f35b6100f860048036038101906100f391906107df565b610279565b6040516101059190610827565b60405180910390f35b610128600480360381019061012391906107df565b6102a3565b6040516101359190610827565b60405180910390f35b610158600480360381019061015391906107df565b6102c3565b005b610174600480360381019061016f91906107df565b61034c565b005b610190600480360381019061018b91906107df565b6103da565b005b6101ac60048036038101906101a791906107df565b610429565b6040516101b99190610851565b60405180910390f35b6101dc60048036038101906101d791906107df565b6104b1565b005b6101e66105eb565b6040516101f391906108ad565b60405180910390f35b610216600480360381019061021191906107df565b61060f565b005b610232600480360381019061022d91906107df565b6106cc565b604051610243959493929190610961565b60405180910390f35b60006001600083815260200190815260200160002060010160019054906101000a900460ff169050919050565b60006002600083815260200190815260200160002060009054906101000a900460ff169050919050565b60026020528060005260406000206000915054906101000a900460ff1681565b60008054906101000a900473ffffffffffffffffffffffffffffffffffffffff1673ffffffffffffffffffffffffffffffffffffffff163373ffffffffffffffffffffffffffffffffffffffff161461031b57600080fd5b600180600083815260200190815260200160002060010160006101000a81548160ff02191690831515021790555050565b600115156002600083815260200190815260200160002060009054906101000a900460ff16151514156103aa5760006002600083815260200190815260200160002060006101000a81548160ff0219169083151502179055506103d7565b60016002600083815260200190815260200160002060006101000a81548160ff0219169083151502179055505b50565b7f536e4b2da47fcadecd3c90e4accf176fd84a07c737b3a5052da223ec03a5acc16001600083815260200190815260200160002060000160405161041e9190610ab1565b60405180910390a150565b6000806001600084815260200190815260200160002060020154146104925760016000838152602001908152602001600020600301546001600084815260200190815260200160002060020154426104819190610b02565b61048b9190610b36565b90506104ac565b600160008381526020019081526020016000206003015490505b919050565b600115156001600083815260200190815260200160002060010160019054906101000a900460ff161515141561059e5760006001600083815260200190815260200160002060010160016101000a81548160ff021916908315150217905550600060016000838152602001908152602001600020600201541461057d576001600082815260200190815260200160002060020154426105509190610b02565b6001600083815260200190815260200160002060030160008282546105759190610b36565b925050819055505b600060016000838152602001908152602001600020600201819055506105e8565b600180600083815260200190815260200160002060010160016101000a81548160ff0219169083151502179055504260016000838152602001908152602001600020600201819055505b50565b60008054906101000a900473ffffffffffffffffffffffffffffffffffffffff1681565b60008054906101000a900473ffffffffffffffffffffffffffffffffffffffff1673ffffffffffffffffffffffffffffffffffffffff163373ffffffffffffffffffffffffffffffffffffffff161461066757600080fd5b6001600082815260200190815260200160002060010160019054906101000a900460ff161561069a57610699816104b1565b5b60006001600083815260200190815260200160002060010160006101000a81548160ff02191690831515021790555050565b60016020528060005260406000206000915090508060000180546106ef906109ea565b80601f016020809104026020016040519081016040528092919081815260200182805461071b906109ea565b80156107685780601f1061073d57610100808354040283529160200191610768565b820191906000526020600020905b81548152906001019060200180831161074b57829003601f168201915b5050505050908060010160009054906101000a900460ff16908060010160019054906101000a900460ff16908060020154908060030154905085565b600080fd5b6000819050919050565b6107bc816107a9565b81146107c757600080fd5b50565b6000813590506107d9816107b3565b92915050565b6000602082840312156107f5576107f46107a4565b5b6000610803848285016107ca565b91505092915050565b60008115159050919050565b6108218161080c565b82525050565b600060208201905061083c6000830184610818565b92915050565b61084b816107a9565b82525050565b60006020820190506108666000830184610842565b92915050565b600073ffffffffffffffffffffffffffffffffffffffff82169050919050565b60006108978261086c565b9050919050565b6108a78161088c565b82525050565b60006020820190506108c2600083018461089e565b92915050565b600081519050919050565b600082825260208201905092915050565b60005b838110156109025780820151818401526020810190506108e7565b83811115610911576000848401525b50505050565b6000601f19601f8301169050919050565b6000610933826108c8565b61093d81856108d3565b935061094d8185602086016108e4565b61095681610917565b840191505092915050565b600060a082019050818103600083015261097b8188610928565b905061098a6020830187610818565b6109976040830186610818565b6109a46060830185610842565b6109b16080830184610842565b9695505050505050565b7f4e487b7100000000000000000000000000000000000000000000000000000000600052602260045260246000fd5b60006002820490506001821680610a0257607f821691505b60208210811415610a1657610a156109bb565b5b50919050565b60008190508160005260206000209050919050565b60008154610a3e816109ea565b610a4881866108d3565b94506001821660008114610a635760018114610a7557610aa8565b60ff1983168652602086019350610aa8565b610a7e85610a1c565b60005b83811015610aa057815481890152600182019150602081019050610a81565b808801955050505b50505092915050565b60006020820190508181036000830152610acb8184610a31565b905092915050565b7f4e487b7100000000000000000000000000000000000000000000000000000000600052601160045260246000fd5b6000610b0d826107a9565b9150610b18836107a9565b925082821015610b2b57610b2a610ad3565b5b828203905092915050565b6000610b41826107a9565b9150610b4c836107a9565b9250827fffffffffffffffffffffffffffffffffffffffffffffffffffffffffffffffff03821115610b8157610b80610ad3565b5b82820190509291505056fea26469706673582212205853608923761b29fd82ab240c4f56672231212ed7336ab40115e196fe8b28a764736f6c634300080c0033",
  "immutableReferences": {},
  "source": "// SPDX-License-Identifier: MIT\npragma solidity ^0.8.12;\n\ncontract ControlDevices\n{\n    address public owner;\n\n    event device_event(string name);\n\n    // sensor that will contains name and status sent by our Devices\n   \n    struct device\n    {\n        string name;\n        bool power;\n        bool status;\n        uint startTime;\n        uint totalTime;\n    }\n   \n    // map to store our data with Devices info in it\n   \n    mapping(uint=>device) public Devices;\n    mapping(uint=>bool) public Room;\n   \n    // setting the owner\n   \n    constructor()\n    {\n        owner = msg.sender;\n        Room[1] = false;\n        Devices[2] = device(\"Fan\", false, false, 0, 0);\n        Devices[3] = device(\"Light\", false, false, 0, 0);\n        Room[2] = false;\n        Devices[4] = device(\"Fan\", false, false, 0, 0);\n        Devices[5] = device(\"Light\", false, false, 0, 0);\n        Room[3] = false;\n        Devices[6] = device(\"Fan\", false, false, 0, 0);\n        Devices[7] = device(\"Light\", false, false, 0, 0);\n        Room[4] = false;\n        Devices[8] = device(\"Fan\", false, false, 0, 0);\n        Devices[9] = device(\"Light\", false, false, 0, 0);\n    }\n\n    function getTotalTime(uint pin) public view returns(uint) {\n        // return the total time\n        // when switched on\n        if(Devices[pin].startTime != 0){\n           return block.timestamp - Devices[pin].startTime + Devices[pin].totalTime;\n        }\n        // when switched off\n        return Devices[pin].totalTime;\n    }\n    // adding the Devices\n\n    function add_device(uint pin) public\n    {\n        require(msg.sender == owner);\n        Devices[pin].power = true;\n    }\n\n    // removing the Devices\n\n    function remove_device(uint pin) public\n    {\n        require(msg.sender == owner);\n        if(Devices[pin].status) {\n            change_device_status(pin);\n        }\n        Devices[pin].power = false;\n    }\n   \n    // checking the status of Devices whether it's on or off\n   \n    function device_status(uint pin) public view returns(bool)\n    {\n        return Devices[pin].status;\n    }\n   \n    // changing the Devices's status\n   \n    function change_device_status(uint pin) public\n    {\n        // switching off\n        if(Devices[pin].status==true)\n        {\n            Devices[pin].status = false;\n            // adding time to totalTime\n            if(Devices[pin].startTime != 0){\n                Devices[pin].totalTime += block.timestamp - Devices[pin].startTime;\n            }\n            Devices[pin].startTime = 0;\n        }\n        else\n        {\n            // switching on\n            Devices[pin].status = true;\n            Devices[pin].startTime = block.timestamp;\n        }\n    }\n\n    function room_status(uint n) public view returns(bool)\n    {\n        return Room[n];\n    }\n   \n    // changing the Room's status\n   \n    function change_room_status(uint n) public\n    {\n        if(Room[n]==true)\n        {\n            Room[n] = false;\n        }\n        else\n        {\n            Room[n] = true;\n        }\n    }\n   \n    function device_mapping_test(uint _id) public\n    {\n        emit device_event(Devices[_id].name);\n    }\n\n}\n",
  "sourcePath": "C:\\Users\\Bellamkonda Pavan\\Desktop\\blockchain-project\\contracts\\ControlDevices.sol",
  "compiler": {
    "name": "solc",
    "version": "0.8.12+commit.f00d7308.Emscripten.clang"
  },
  "schemaVersion": "3.4.7",
  "updatedAt": "2022-04-24T19:12:37.386Z",
  "networkType": "ethereum",
  "devdoc": {
    "kind": "dev",
    "methods": {},
    "version": 1
  },
  "userdoc": {
    "kind": "user",
    "methods": {},
    "version": 1
  }
}