{
  "contractName": "ControlDevices",
  "abi": [
    {
      "inputs": [],
      "stateMutability": "nonpayable",
      "type": "constructor"
    },
    {
      "anonymous": false,
      "inputs": [
        {
          "indexed": false,
          "internalType": "string",
          "name": "name",
          "type": "string"
        }
      ],
      "name": "device_event",
      "type": "event"
    },
    {
      "inputs": [
        {
          "internalType": "uint256",
          "name": "",
          "type": "uint256"
        }
      ],
      "name": "Devices",
      "outputs": [
        {
          "internalType": "string",
          "name": "name",
          "type": "string"
        },
        {
          "internalType": "bool",
          "name": "power",
          "type": "bool"
        },
        {
          "internalType": "bool",
          "name": "status",
          "type": "bool"
        },
        {
          "internalType": "uint256",
          "name": "startTime",
          "type": "uint256"
        },
        {
          "internalType": "uint256",
          "name": "totalTime",
          "type": "uint256"
        }
      ],
      "stateMutability": "view",
      "type": "function",
      "constant": true
    },
    {
      "inputs": [
        {
          "internalType": "uint256",
          "name": "",
          "type": "uint256"
        }
      ],
      "name": "Room",
      "outputs": [
        {
          "internalType": "bool",
          "name": "status",
          "type": "bool"
        },
        {
          "internalType": "uint256",
          "name": "thres",
          "type": "uint256"
        }
      ],
      "stateMutability": "view",
      "type": "function",
      "constant": true
    },
    {
      "inputs": [],
      "name": "owner",
      "outputs": [
        {
          "internalType": "address",
          "name": "",
          "type": "address"
        }
      ],
      "stateMutability": "view",
      "type": "function",
      "constant": true
    },
    {
      "inputs": [],
      "name": "addRoomAndDevices",
      "outputs": [],
      "stateMutability": "nonpayable",
      "type": "function"
    },
    {
      "inputs": [
        {
          "internalType": "uint256",
          "name": "idx",
          "type": "uint256"
        }
      ],
      "name": "deleteRoomAndDevices",
      "outputs": [],
      "stateMutability": "nonpayable",
      "type": "function"
    },
    {
      "inputs": [],
      "name": "getNRooms",
      "outputs": [
        {
          "internalType": "uint256",
          "name": "",
          "type": "uint256"
        }
      ],
      "stateMutability": "view",
      "type": "function",
      "constant": true
    },
    {
      "inputs": [
        {
          "internalType": "uint256",
          "name": "pin",
          "type": "uint256"
        }
      ],
      "name": "getCurrentActiveTime",
      "outputs": [
        {
          "internalType": "uint256",
          "name": "",
          "type": "uint256"
        }
      ],
      "stateMutability": "view",
      "type": "function",
      "constant": true
    },
    {
      "inputs": [
        {
          "internalType": "uint256",
          "name": "pin",
          "type": "uint256"
        }
      ],
      "name": "getTotalTime",
      "outputs": [
        {
          "internalType": "uint256",
          "name": "",
          "type": "uint256"
        }
      ],
      "stateMutability": "view",
      "type": "function",
      "constant": true
    },
    {
      "inputs": [
        {
          "internalType": "uint256",
          "name": "pin",
          "type": "uint256"
        }
      ],
      "name": "add_device",
      "outputs": [],
      "stateMutability": "nonpayable",
      "type": "function"
    },
    {
      "inputs": [
        {
          "internalType": "uint256",
          "name": "pin",
          "type": "uint256"
        }
      ],
      "name": "remove_device",
      "outputs": [],
      "stateMutability": "nonpayable",
      "type": "function"
    },
    {
      "inputs": [
        {
          "internalType": "uint256",
          "name": "pin",
          "type": "uint256"
        }
      ],
      "name": "device_status",
      "outputs": [
        {
          "internalType": "bool",
          "name": "",
          "type": "bool"
        }
      ],
      "stateMutability": "view",
      "type": "function",
      "constant": true
    },
    {
      "inputs": [
        {
          "internalType": "uint256",
          "name": "pin",
          "type": "uint256"
        }
      ],
      "name": "change_device_status",
      "outputs": [],
      "stateMutability": "nonpayable",
      "type": "function"
    },
    {
      "inputs": [
        {
          "internalType": "uint256",
          "name": "n",
          "type": "uint256"
        }
      ],
      "name": "room_status",
      "outputs": [
        {
          "internalType": "bool",
          "name": "",
          "type": "bool"
        }
      ],
      "stateMutability": "view",
      "type": "function",
      "constant": true
    },
    {
      "inputs": [
        {
          "internalType": "uint256",
          "name": "n",
          "type": "uint256"
        }
      ],
      "name": "room_thres",
      "outputs": [
        {
          "internalType": "uint256",
          "name": "",
          "type": "uint256"
        }
      ],
      "stateMutability": "view",
      "type": "function",
      "constant": true
    },
    {
      "inputs": [
        {
          "internalType": "uint256",
          "name": "n",
          "type": "uint256"
        }
      ],
      "name": "change_room_status",
      "outputs": [],
      "stateMutability": "nonpayable",
      "type": "function"
    },
    {
      "inputs": [
        {
          "internalType": "uint256",
          "name": "_id",
          "type": "uint256"
        }
      ],
      "name": "device_mapping_test",
      "outputs": [],
      "stateMutability": "nonpayable",
      "type": "function"
    }
  ],
  "bytecode": "0x608060405234801561001057600080fd5b50336000806101000a81548173ffffffffffffffffffffffffffffffffffffffff021916908373ffffffffffffffffffffffffffffffffffffffff160217905550611641806100606000396000f3fe608060405234801561001057600080fd5b50600436106101005760003560e01c8063570abe2a11610097578063aac5763a11610066578063aac5763a146102d2578063be5fb212146102dc578063d709883e146102f8578063e9b0458f1461032c57610100565b8063570abe2a146102385780635f530671146102685780638da5cb5b146102845780639d79ac8b146102a257610100565b806313a3b24f116100d357806313a3b24f146101b25780631b93021a146101ce5780631da61d2a146101ea57806354aa3a5f1461021a57610100565b80630548fafc1461010557806308b91c6b146101355780631149050214610165578063124f2a5514610196575b600080fd5b61011f600480360381019061011a9190611168565b610348565b60405161012c91906111b0565b60405180910390f35b61014f600480360381019061014a9190611168565b610375565b60405161015c91906111b0565b60405180910390f35b61017f600480360381019061017a9190611168565b6103a2565b60405161018d9291906111da565b60405180910390f35b6101b060048036038101906101ab9190611168565b6103d3565b005b6101cc60048036038101906101c79190611168565b61045c565b005b6101e860048036038101906101e39190611168565b6104f3565b005b61020460048036038101906101ff9190611168565b610542565b6040516102119190611203565b60405180910390f35b610222610562565b60405161022f9190611203565b60405180910390f35b610252600480360381019061024d9190611168565b61056c565b60405161025f9190611203565b60405180910390f35b610282600480360381019061027d9190611168565b6105f4565b005b61028c61072e565b604051610299919061125f565b60405180910390f35b6102bc60048036038101906102b79190611168565b610752565b6040516102c99190611203565b60405180910390f35b6102da61077d565b005b6102f660048036038101906102f19190611168565b610a42565b005b610312600480360381019061030d9190611168565b610aff565b604051610323959493929190611313565b60405180910390f35b61034660048036038101906103419190611168565b610bd7565b005b60006001600083815260200190815260200160002060010160019054906101000a900460ff169050919050565b60006002600083815260200190815260200160002060000160009054906101000a900460ff169050919050565b60026020528060005260406000206000915090508060000160009054906101000a900460ff16908060010154905082565b60008054906101000a900473ffffffffffffffffffffffffffffffffffffffff1673ffffffffffffffffffffffffffffffffffffffff163373ffffffffffffffffffffffffffffffffffffffff161461042b57600080fd5b600180600083815260200190815260200160002060010160006101000a81548160ff02191690831515021790555050565b600115156002600083815260200190815260200160002060000160009054906101000a900460ff16151514156104c05760006002600083815260200190815260200160002060000160006101000a81548160ff0219169083151502179055506104f0565b60016002600083815260200190815260200160002060000160006101000a81548160ff0219169083151502179055505b50565b7f536e4b2da47fcadecd3c90e4accf176fd84a07c737b3a5052da223ec03a5acc1600160008381526020019081526020016000206000016040516105379190611463565b60405180910390a150565b600060026000838152602001908152602001600020600101549050919050565b6000600354905090565b6000806001600084815260200190815260200160002060020154146105d55760016000838152602001908152602001600020600301546001600084815260200190815260200160002060020154426105c491906114b4565b6105ce91906114e8565b90506105ef565b600160008381526020019081526020016000206003015490505b919050565b600115156001600083815260200190815260200160002060010160019054906101000a900460ff16151514156106e15760006001600083815260200190815260200160002060010160016101000a81548160ff02191690831515021790555060006001600083815260200190815260200160002060020154146106c05760016000828152602001908152602001600020600201544261069391906114b4565b6001600083815260200190815260200160002060030160008282546106b891906114e8565b925050819055505b6000600160008381526020019081526020016000206002018190555061072b565b600180600083815260200190815260200160002060010160016101000a81548160ff0219169083151502179055504260016000838152602001908152602001600020600201819055505b50565b60008054906101000a900473ffffffffffffffffffffffffffffffffffffffff1681565b600060016000838152602001908152602001600020600201544261077691906114b4565b9050919050565b60008054906101000a900473ffffffffffffffffffffffffffffffffffffffff1673ffffffffffffffffffffffffffffffffffffffff163373ffffffffffffffffffffffffffffffffffffffff16146107d557600080fd5b6040518060400160405280600015158152602001600a815250600260006003600081546108019061153e565b919050819055815260200190815260200160002060008201518160000160006101000a81548160ff021916908315150217905550602082015181600101559050506040518060a001604052806040518060400160405280600381526020017f46616e000000000000000000000000000000000000000000000000000000000081525081526020016000151581526020016000151581526020016000815260200160008152506001600060035460026108b99190611587565b815260200190815260200160002060008201518160000190805190602001906108e3929190610fbd565b5060208201518160010160006101000a81548160ff02191690831515021790555060408201518160010160016101000a81548160ff02191690831515021790555060608201518160020155608082015181600301559050506040518060a001604052806040518060400160405280600581526020017f4c69676874000000000000000000000000000000000000000000000000000000815250815260200160001515815260200160001515815260200160008152602001600081525060016000600160035460026109b49190611587565b6109be91906114e8565b815260200190815260200160002060008201518160000190805190602001906109e8929190610fbd565b5060208201518160010160006101000a81548160ff02191690831515021790555060408201518160010160016101000a81548160ff0219169083151502179055506060820151816002015560808201518160030155905050565b60008054906101000a900473ffffffffffffffffffffffffffffffffffffffff1673ffffffffffffffffffffffffffffffffffffffff163373ffffffffffffffffffffffffffffffffffffffff1614610a9a57600080fd5b6001600082815260200190815260200160002060010160019054906101000a900460ff1615610acd57610acc816105f4565b5b60006001600083815260200190815260200160002060010160006101000a81548160ff02191690831515021790555050565b6001602052806000526040600020600091509050806000018054610b229061139c565b80601f0160208091040260200160405190810160405280929190818152602001828054610b4e9061139c565b8015610b9b5780601f10610b7057610100808354040283529160200191610b9b565b820191906000526020600020905b815481529060010190602001808311610b7e57829003601f168201915b5050505050908060010160009054906101000a900460ff16908060010160019054906101000a900460ff16908060020154908060030154905085565b60008054906101000a900473ffffffffffffffffffffffffffffffffffffffff1673ffffffffffffffffffffffffffffffffffffffff163373ffffffffffffffffffffffffffffffffffffffff1614610c2f57600080fd5b60008190505b600354811015610e8b5760026000600183610c5091906114e8565b8152602001908152602001600020600260008381526020019081526020016000206000820160009054906101000a900460ff168160000160006101000a81548160ff0219169083151502179055506001820154816001015590505060016000600183610cbc91906114e8565b6002610cc89190611587565b815260200190815260200160002060016000836002610ce79190611587565b81526020019081526020016000206000820181600001908054610d099061139c565b610d14929190611043565b506001820160009054906101000a900460ff168160010160006101000a81548160ff0219169083151502179055506001820160019054906101000a900460ff168160010160016101000a81548160ff02191690831515021790555060028201548160020155600382015481600301559050506001600060018084610d9891906114e8565b6002610da49190611587565b610dae91906114e8565b8152602001908152602001600020600160006001846002610dcf9190611587565b610dd991906114e8565b81526020019081526020016000206000820181600001908054610dfb9061139c565b610e06929190611043565b506001820160009054906101000a900460ff168160010160006101000a81548160ff0219169083151502179055506001820160019054906101000a900460ff168160010160016101000a81548160ff02191690831515021790555060028201548160020155600382015481600301559050508080610e839061153e565b915050610c35565b50600260006003548152602001908152602001600020600080820160006101000a81549060ff021916905560018201600090555050600160006003546002610ed39190611587565b815260200190815260200160002060008082016000610ef291906110d0565b6001820160006101000a81549060ff02191690556001820160016101000a81549060ff02191690556002820160009055600382016000905550506001600060016003546002610f419190611587565b610f4b91906114e8565b815260200190815260200160002060008082016000610f6a91906110d0565b6001820160006101000a81549060ff02191690556001820160016101000a81549060ff0219169055600282016000905560038201600090555050600360008154610fb3906115e1565b9190508190555050565b828054610fc99061139c565b90600052602060002090601f016020900481019282610feb5760008555611032565b82601f1061100457805160ff1916838001178555611032565b82800160010185558215611032579182015b82811115611031578251825591602001919060010190611016565b5b50905061103f9190611110565b5090565b82805461104f9061139c565b90600052602060002090601f01602090048101928261107157600085556110bf565b82601f1061108257805485556110bf565b828001600101855582156110bf57600052602060002091601f016020900482015b828111156110be5782548255916001019190600101906110a3565b5b5090506110cc9190611110565b5090565b5080546110dc9061139c565b6000825580601f106110ee575061110d565b601f01602090049060005260206000209081019061110c9190611110565b5b50565b5b80821115611129576000816000905550600101611111565b5090565b600080fd5b6000819050919050565b61114581611132565b811461115057600080fd5b50565b6000813590506111628161113c565b92915050565b60006020828403121561117e5761117d61112d565b5b600061118c84828501611153565b91505092915050565b60008115159050919050565b6111aa81611195565b82525050565b60006020820190506111c560008301846111a1565b92915050565b6111d481611132565b82525050565b60006040820190506111ef60008301856111a1565b6111fc60208301846111cb565b9392505050565b600060208201905061121860008301846111cb565b92915050565b600073ffffffffffffffffffffffffffffffffffffffff82169050919050565b60006112498261121e565b9050919050565b6112598161123e565b82525050565b60006020820190506112746000830184611250565b92915050565b600081519050919050565b600082825260208201905092915050565b60005b838110156112b4578082015181840152602081019050611299565b838111156112c3576000848401525b50505050565b6000601f19601f8301169050919050565b60006112e58261127a565b6112ef8185611285565b93506112ff818560208601611296565b611308816112c9565b840191505092915050565b600060a082019050818103600083015261132d81886112da565b905061133c60208301876111a1565b61134960408301866111a1565b61135660608301856111cb565b61136360808301846111cb565b9695505050505050565b7f4e487b7100000000000000000000000000000000000000000000000000000000600052602260045260246000fd5b600060028204905060018216806113b457607f821691505b602082108114156113c8576113c761136d565b5b50919050565b60008190508160005260206000209050919050565b600081546113f08161139c565b6113fa8186611285565b9450600182166000811461141557600181146114275761145a565b60ff198316865260208601935061145a565b611430856113ce565b60005b8381101561145257815481890152600182019150602081019050611433565b808801955050505b50505092915050565b6000602082019050818103600083015261147d81846113e3565b905092915050565b7f4e487b7100000000000000000000000000000000000000000000000000000000600052601160045260246000fd5b60006114bf82611132565b91506114ca83611132565b9250828210156114dd576114dc611485565b5b828203905092915050565b60006114f382611132565b91506114fe83611132565b9250827fffffffffffffffffffffffffffffffffffffffffffffffffffffffffffffffff0382111561153357611532611485565b5b828201905092915050565b600061154982611132565b91507fffffffffffffffffffffffffffffffffffffffffffffffffffffffffffffffff82141561157c5761157b611485565b5b600182019050919050565b600061159282611132565b915061159d83611132565b9250817fffffffffffffffffffffffffffffffffffffffffffffffffffffffffffffffff04831182151516156115d6576115d5611485565b5b828202905092915050565b60006115ec82611132565b91506000821415611600576115ff611485565b5b60018203905091905056fea26469706673582212203a941ea9a50989cda38753d1a66156d75eba56ca0c277204e41b7e062ec9330564736f6c634300080c0033",
  "immutableReferences": {},
  "source": "// SPDX-License-Identifier: MIT\npragma solidity ^0.8.12;\n\ncontract ControlDevices\n{\n    address public owner;\n\n    event device_event(string name);\n\n    // sensor that will contains name and status sent by our Devices\n   \n    struct device\n    {\n        string name;\n        bool power;\n        bool status;\n        uint startTime;\n        uint totalTime;\n    }\n\n    struct room {\n        bool status;\n        uint thres; //room's threshold\n    }\n   \n    // map to store our data with Devices info in it\n   \n    mapping(uint=>device) public Devices;\n    mapping(uint=>room) public Room;\n    uint index;\n   \n    // setting the owner\n   \n    constructor()\n    {\n        owner = msg.sender;\n    }\n\n    function addRoomAndDevices() public {\n        require(msg.sender == owner);\n        Room[++index] = room(false, 10);\n        Devices[2*index] = device(\"Fan\", false, false, 0, 0);\n        Devices[2*index+1] = device(\"Light\", false, false, 0, 0);\n    }\n\n    function deleteRoomAndDevices(uint idx) public {\n        require(msg.sender == owner);\n        for (uint256 i = idx; i < index; i++) {\n            Room[i] = Room[i+1];\n            Devices[2*i] = Devices[2*(i+1)];\n            Devices[2*i+1] = Devices[2*(i+1)+1];\n        }\n        delete(Room[index]);\n        delete(Devices[2*index]);\n        delete(Devices[2*index+1]);\n        --index;\n    }\n\n    function getNRooms() public view returns(uint) {\n        return index;\n    }\n\n    function getCurrentActiveTime(uint pin) public view returns(uint) {\n        return block.timestamp - Devices[pin].startTime;\n    }\n\n    function getTotalTime(uint pin) public view returns(uint) {\n        // return the total time\n        // when switched on\n        if(Devices[pin].startTime != 0){\n           return block.timestamp - Devices[pin].startTime + Devices[pin].totalTime;\n        }\n        // when switched off\n        return Devices[pin].totalTime;\n    }\n    // adding the Devices\n\n    function add_device(uint pin) public\n    {\n        require(msg.sender == owner);\n        Devices[pin].power = true;\n    }\n\n    // removing the Devices\n\n    function remove_device(uint pin) public\n    {\n        require(msg.sender == owner);\n        if(Devices[pin].status) {\n            change_device_status(pin);\n        }\n        Devices[pin].power = false;\n    }\n   \n    // checking the status of Devices whether it's on or off\n   \n    function device_status(uint pin) public view returns(bool)\n    {\n        return Devices[pin].status;\n    }\n   \n    // changing the Devices's status\n   \n    function change_device_status(uint pin) public\n    {\n        // switching off\n        if(Devices[pin].status==true)\n        {\n            Devices[pin].status = false;\n            // adding time to totalTime\n            if(Devices[pin].startTime != 0){\n                Devices[pin].totalTime += block.timestamp - Devices[pin].startTime;\n            }\n            Devices[pin].startTime = 0;\n        }\n        else\n        {\n            // switching on\n            Devices[pin].status = true;\n            Devices[pin].startTime = block.timestamp;\n        }\n    }\n\n    function room_status(uint n) public view returns(bool)\n    {\n        return Room[n].status;\n    }\n\n    function room_thres(uint n) public view returns(uint)\n    {\n        return Room[n].thres;\n    }\n   \n    // changing the Room's status\n   \n    function change_room_status(uint n) public\n    {\n        if(Room[n].status==true)\n        {\n            Room[n].status = false;\n        }\n        else\n        {\n            Room[n].status = true;\n        }\n    }\n   \n    function device_mapping_test(uint _id) public\n    {\n        emit device_event(Devices[_id].name);\n    }\n\n}\n",
  "sourcePath": "C:\\Users\\Bellamkonda Pavan\\Desktop\\blockchain-project\\contracts\\ControlDevices.sol",
  "compiler": {
    "name": "solc",
    "version": "0.8.12+commit.f00d7308.Emscripten.clang"
  },
  "schemaVersion": "3.4.7",
  "updatedAt": "2022-04-28T01:38:35.356Z",
  "networkType": "ethereum",
  "devdoc": {
    "kind": "dev",
    "methods": {},
    "version": 1
  },
  "userdoc": {
    "kind": "user",
    "methods": {},
    "version": 1
  }
}