{
  "contractName": "ControlDevices",
  "abi": [
    {
      "inputs": [],
      "stateMutability": "nonpayable",
      "type": "constructor"
    },
    {
      "anonymous": false,
      "inputs": [
        {
          "indexed": false,
          "internalType": "string",
          "name": "name",
          "type": "string"
        }
      ],
      "name": "device_event",
      "type": "event"
    },
    {
      "inputs": [
        {
          "internalType": "uint256",
          "name": "",
          "type": "uint256"
        }
      ],
      "name": "Devices",
      "outputs": [
        {
          "internalType": "string",
          "name": "name",
          "type": "string"
        },
        {
          "internalType": "bool",
          "name": "status",
          "type": "bool"
        }
      ],
      "stateMutability": "view",
      "type": "function",
      "constant": true
    },
    {
      "inputs": [
        {
          "internalType": "uint256",
          "name": "",
          "type": "uint256"
        }
      ],
      "name": "Room",
      "outputs": [
        {
          "internalType": "bool",
          "name": "",
          "type": "bool"
        }
      ],
      "stateMutability": "view",
      "type": "function",
      "constant": true
    },
    {
      "inputs": [],
      "name": "owner",
      "outputs": [
        {
          "internalType": "address",
          "name": "",
          "type": "address"
        }
      ],
      "stateMutability": "view",
      "type": "function",
      "constant": true
    },
    {
      "inputs": [
        {
          "internalType": "uint256",
          "name": "pin",
          "type": "uint256"
        },
        {
          "internalType": "string",
          "name": "device_name",
          "type": "string"
        }
      ],
      "name": "add_device",
      "outputs": [],
      "stateMutability": "nonpayable",
      "type": "function"
    },
    {
      "inputs": [
        {
          "internalType": "uint256",
          "name": "pin",
          "type": "uint256"
        }
      ],
      "name": "remove_device",
      "outputs": [],
      "stateMutability": "nonpayable",
      "type": "function"
    },
    {
      "inputs": [
        {
          "internalType": "uint256",
          "name": "pin",
          "type": "uint256"
        }
      ],
      "name": "device_status",
      "outputs": [
        {
          "internalType": "bool",
          "name": "",
          "type": "bool"
        }
      ],
      "stateMutability": "view",
      "type": "function",
      "constant": true
    },
    {
      "inputs": [
        {
          "internalType": "uint256",
          "name": "pin",
          "type": "uint256"
        }
      ],
      "name": "change_device_status",
      "outputs": [],
      "stateMutability": "nonpayable",
      "type": "function"
    },
    {
      "inputs": [
        {
          "internalType": "uint256",
          "name": "n",
          "type": "uint256"
        }
      ],
      "name": "room_status",
      "outputs": [
        {
          "internalType": "bool",
          "name": "",
          "type": "bool"
        }
      ],
      "stateMutability": "view",
      "type": "function",
      "constant": true
    },
    {
      "inputs": [
        {
          "internalType": "uint256",
          "name": "n",
          "type": "uint256"
        }
      ],
      "name": "change_room_status",
      "outputs": [],
      "stateMutability": "nonpayable",
      "type": "function"
    },
    {
      "inputs": [
        {
          "internalType": "uint256",
          "name": "_id",
          "type": "uint256"
        }
      ],
      "name": "device_mapping_test",
      "outputs": [],
      "stateMutability": "nonpayable",
      "type": "function"
    }
  ],
  "bytecode": "0x608060405234801561001057600080fd5b50336000806101000a81548173ffffffffffffffffffffffffffffffffffffffff021916908373ffffffffffffffffffffffffffffffffffffffff1602179055506000600260006001815260200190815260200160002060006101000a81548160ff0219169083151502179055506000600260006002815260200190815260200160002060006101000a81548160ff0219169083151502179055506000600260006003815260200190815260200160002060006101000a81548160ff0219169083151502179055506000600260006004815260200190815260200160002060006101000a81548160ff021916908315150217905550610bc5806101146000396000f3fe608060405234801561001057600080fd5b506004361061009e5760003560e01c80635f530671116100665780635f5306711461016b5780638da5cb5b14610187578063be5fb212146101a5578063d709883e146101c1578063e71dc7b2146101f25761009e565b80630548fafc146100a357806308b91c6b146100d3578063114905021461010357806313a3b24f146101335780631b93021a1461014f575b600080fd5b6100bd60048036038101906100b8919061075e565b61020e565b6040516100ca91906107a6565b60405180910390f35b6100ed60048036038101906100e8919061075e565b61023b565b6040516100fa91906107a6565b60405180910390f35b61011d6004803603810190610118919061075e565b610265565b60405161012a91906107a6565b60405180910390f35b61014d6004803603810190610148919061075e565b610285565b005b6101696004803603810190610164919061075e565b610313565b005b6101856004803603810190610180919061075e565b610362565b005b61018f6103f8565b60405161019c9190610802565b60405180910390f35b6101bf60048036038101906101ba919061075e565b61041c565b005b6101db60048036038101906101d6919061075e565b6104b1565b6040516101e99291906108b6565b60405180910390f35b61020c60048036038101906102079190610a1b565b61056a565b005b60006001600083815260200190815260200160002060010160009054906101000a900460ff169050919050565b60006002600083815260200190815260200160002060009054906101000a900460ff169050919050565b60026020528060005260406000206000915054906101000a900460ff1681565b600115156002600083815260200190815260200160002060009054906101000a900460ff16151514156102e35760006002600083815260200190815260200160002060006101000a81548160ff021916908315150217905550610310565b60016002600083815260200190815260200160002060006101000a81548160ff0219169083151502179055505b50565b7f536e4b2da47fcadecd3c90e4accf176fd84a07c737b3a5052da223ec03a5acc1600160008381526020019081526020016000206000016040516103579190610b6d565b60405180910390a150565b600115156001600083815260200190815260200160002060010160009054906101000a900460ff16151514156103c65760006001600083815260200190815260200160002060010160006101000a81548160ff0219169083151502179055506103f5565b600180600083815260200190815260200160002060010160006101000a81548160ff0219169083151502179055505b50565b60008054906101000a900473ffffffffffffffffffffffffffffffffffffffff1681565b60008054906101000a900473ffffffffffffffffffffffffffffffffffffffff1673ffffffffffffffffffffffffffffffffffffffff163373ffffffffffffffffffffffffffffffffffffffff161461047457600080fd5b60016000828152602001908152602001600020600080820160006104989190610631565b6001820160006101000a81549060ff0219169055505050565b60016020528060005260406000206000915090508060000180546104d490610aa6565b80601f016020809104026020016040519081016040528092919081815260200182805461050090610aa6565b801561054d5780601f106105225761010080835404028352916020019161054d565b820191906000526020600020905b81548152906001019060200180831161053057829003601f168201915b5050505050908060010160009054906101000a900460ff16905082565b60008054906101000a900473ffffffffffffffffffffffffffffffffffffffff1673ffffffffffffffffffffffffffffffffffffffff163373ffffffffffffffffffffffffffffffffffffffff16146105c257600080fd5b604051806040016040528082815260200160001515815250600160008481526020019081526020016000206000820151816000019080519060200190610609929190610671565b5060208201518160010160006101000a81548160ff0219169083151502179055509050505050565b50805461063d90610aa6565b6000825580601f1061064f575061066e565b601f01602090049060005260206000209081019061066d91906106f7565b5b50565b82805461067d90610aa6565b90600052602060002090601f01602090048101928261069f57600085556106e6565b82601f106106b857805160ff19168380011785556106e6565b828001600101855582156106e6579182015b828111156106e55782518255916020019190600101906106ca565b5b5090506106f391906106f7565b5090565b5b808211156107105760008160009055506001016106f8565b5090565b6000604051905090565b600080fd5b600080fd5b6000819050919050565b61073b81610728565b811461074657600080fd5b50565b60008135905061075881610732565b92915050565b6000602082840312156107745761077361071e565b5b600061078284828501610749565b91505092915050565b60008115159050919050565b6107a08161078b565b82525050565b60006020820190506107bb6000830184610797565b92915050565b600073ffffffffffffffffffffffffffffffffffffffff82169050919050565b60006107ec826107c1565b9050919050565b6107fc816107e1565b82525050565b600060208201905061081760008301846107f3565b92915050565b600081519050919050565b600082825260208201905092915050565b60005b8381101561085757808201518184015260208101905061083c565b83811115610866576000848401525b50505050565b6000601f19601f8301169050919050565b60006108888261081d565b6108928185610828565b93506108a2818560208601610839565b6108ab8161086c565b840191505092915050565b600060408201905081810360008301526108d0818561087d565b90506108df6020830184610797565b9392505050565b600080fd5b600080fd5b7f4e487b7100000000000000000000000000000000000000000000000000000000600052604160045260246000fd5b6109288261086c565b810181811067ffffffffffffffff82111715610947576109466108f0565b5b80604052505050565b600061095a610714565b9050610966828261091f565b919050565b600067ffffffffffffffff821115610986576109856108f0565b5b61098f8261086c565b9050602081019050919050565b82818337600083830152505050565b60006109be6109b98461096b565b610950565b9050828152602081018484840111156109da576109d96108eb565b5b6109e584828561099c565b509392505050565b600082601f830112610a0257610a016108e6565b5b8135610a128482602086016109ab565b91505092915050565b60008060408385031215610a3257610a3161071e565b5b6000610a4085828601610749565b925050602083013567ffffffffffffffff811115610a6157610a60610723565b5b610a6d858286016109ed565b9150509250929050565b7f4e487b7100000000000000000000000000000000000000000000000000000000600052602260045260246000fd5b60006002820490506001821680610abe57607f821691505b60208210811415610ad257610ad1610a77565b5b50919050565b60008190508160005260206000209050919050565b60008154610afa81610aa6565b610b048186610828565b94506001821660008114610b1f5760018114610b3157610b64565b60ff1983168652602086019350610b64565b610b3a85610ad8565b60005b83811015610b5c57815481890152600182019150602081019050610b3d565b808801955050505b50505092915050565b60006020820190508181036000830152610b878184610aed565b90509291505056fea264697066735822122081bb8b16bc84b51c9eaa704cdf1168545c1edfe76240c7af202bc95440b11a4d64736f6c634300080c0033",
  "immutableReferences": {},
  "source": "// SPDX-License-Identifier: MIT\npragma solidity ^0.8.12;\n\ncontract ControlDevices \n{\n    address public owner;\n\n    event device_event(string name);\n\n    // sensor that will contains name and status sent by our device\n    \n    struct device \n    {\n        string name;\n        bool status;\n    }\n    \n    // map to store our data with device info in it\n    \n    mapping(uint=>device) public Devices;\n    mapping(uint=>bool) public Room;\n    \n    // setting the owner\n    \n    constructor() \n    {\n        owner = msg.sender;\n        Room[1] = false;\n        Room[2] = false;\n        Room[3] = false;\n        Room[4] = false;\n    }\n\n    // adding the device \n\n    function add_device(uint pin, string memory device_name) public \n    {\n        require(msg.sender == owner);\n        Devices[pin] = device(device_name, false);\n    }\n\n    // removing the device \n\n    function remove_device(uint pin) public \n    {\n        require(msg.sender == owner);\n        delete Devices[pin];\n    }\n    \n    // checking the status of device whether it's on or off\n    \n    function device_status(uint pin) public view returns(bool) \n    {\n        return Devices[pin].status;\n    }\n    \n    // changing the device's status\n    \n    function change_device_status(uint pin) public \n    {\n        if(Devices[pin].status==true) \n        {\n            Devices[pin].status = false;\n        }\n        else \n        {\n            Devices[pin].status = true;\n        }\n    }\n\n    function room_status(uint n) public view returns(bool) \n    {\n        return Room[n];\n    }\n    \n    // changing the Room's status\n    \n    function change_room_status(uint n) public \n    {\n        if(Room[n]==true) \n        {\n            Room[n] = false;\n        }\n        else \n        {\n            Room[n] = true;\n        }\n    }\n    \n    function device_mapping_test(uint _id) public \n    {\n        emit device_event(Devices[_id].name);\n    }\n\n}",
  "sourcePath": "C:\\Users\\Bellamkonda Pavan\\Desktop\\blockchain-project\\contracts\\ControlDevices.sol",
  "compiler": {
    "name": "solc",
    "version": "0.8.12+commit.f00d7308.Emscripten.clang"
  },
  "schemaVersion": "3.4.7",
  "updatedAt": "2022-04-22T05:16:51.288Z",
  "networkType": "ethereum",
  "devdoc": {
    "kind": "dev",
    "methods": {},
    "version": 1
  },
  "userdoc": {
    "kind": "user",
    "methods": {},
    "version": 1
  }
}